{
  "_format": "hh-sol-artifact-1",
  "contractName": "TodoList",
  "sourceName": "contracts/TodoList.sol",
  "abi": [
    {
      "anonymous": false,
      "inputs": [
        {
          "indexed": false,
          "internalType": "uint256",
          "name": "id",
          "type": "uint256"
        }
      ],
      "name": "TaskCompleted",
      "type": "event"
    },
    {
      "anonymous": false,
      "inputs": [
        {
          "indexed": false,
          "internalType": "uint256",
          "name": "id",
          "type": "uint256"
        },
        {
          "indexed": false,
          "internalType": "string",
          "name": "content",
          "type": "string"
        },
        {
          "indexed": false,
          "internalType": "address",
          "name": "creator",
          "type": "address"
        }
      ],
      "name": "TaskCreated",
      "type": "event"
    },
    {
      "anonymous": false,
      "inputs": [
        {
          "indexed": false,
          "internalType": "uint256",
          "name": "id",
          "type": "uint256"
        }
      ],
      "name": "TaskDeleted",
      "type": "event"
    },
    {
      "anonymous": false,
      "inputs": [
        {
          "indexed": false,
          "internalType": "uint256",
          "name": "id",
          "type": "uint256"
        },
        {
          "indexed": false,
          "internalType": "string",
          "name": "newContent",
          "type": "string"
        }
      ],
      "name": "TaskEdited",
      "type": "event"
    },
    {
      "inputs": [
        {
          "internalType": "uint256",
          "name": "id",
          "type": "uint256"
        }
      ],
      "name": "completeTask",
      "outputs": [],
      "stateMutability": "nonpayable",
      "type": "function"
    },
    {
      "inputs": [
        {
          "internalType": "string",
          "name": "content",
          "type": "string"
        }
      ],
      "name": "createTask",
      "outputs": [],
      "stateMutability": "nonpayable",
      "type": "function"
    },
    {
      "inputs": [
        {
          "internalType": "uint256",
          "name": "id",
          "type": "uint256"
        }
      ],
      "name": "deleteTask",
      "outputs": [],
      "stateMutability": "nonpayable",
      "type": "function"
    },
    {
      "inputs": [
        {
          "internalType": "uint256",
          "name": "id",
          "type": "uint256"
        },
        {
          "internalType": "string",
          "name": "newContent",
          "type": "string"
        }
      ],
      "name": "editTask",
      "outputs": [],
      "stateMutability": "nonpayable",
      "type": "function"
    },
    {
      "inputs": [],
      "name": "taskCount",
      "outputs": [
        {
          "internalType": "uint256",
          "name": "",
          "type": "uint256"
        }
      ],
      "stateMutability": "view",
      "type": "function"
    },
    {
      "inputs": [
        {
          "internalType": "uint256",
          "name": "",
          "type": "uint256"
        }
      ],
      "name": "tasks",
      "outputs": [
        {
          "internalType": "uint256",
          "name": "id",
          "type": "uint256"
        },
        {
          "internalType": "string",
          "name": "content",
          "type": "string"
        },
        {
          "internalType": "bool",
          "name": "completed",
          "type": "bool"
        },
        {
          "internalType": "address",
          "name": "creator",
          "type": "address"
        }
      ],
      "stateMutability": "view",
      "type": "function"
    }
  ],
  "bytecode": "0x608060405234801561001057600080fd5b5061106b806100206000396000f3fe608060405234801561001057600080fd5b50600436106100625760003560e01c8063111002aa14610067578063560f3192146100835780638d9776721461009f578063b6cb58a5146100d2578063cb7bd995146100f0578063e1e295581461010c575b600080fd5b610081600480360381019061007c91906108d5565b610128565b005b61009d60048036038101906100989190610954565b61025a565b005b6100b960048036038101906100b49190610954565b6103a5565b6040516100c99493929190610a6b565b60405180910390f35b6100da61048a565b6040516100e79190610ab7565b60405180910390f35b61010a60048036038101906101059190610ad2565b610490565b005b61012660048036038101906101219190610954565b6105cc565b005b6001600081548092919061013b90610b5d565b9190505550604051806080016040528060015481526020018281526020016000151581526020013373ffffffffffffffffffffffffffffffffffffffff1681525060008060015481526020019081526020016000206000820151816000015560208201518160010190816101af9190610db1565b5060408201518160020160006101000a81548160ff02191690831515021790555060608201518160020160016101000a81548173ffffffffffffffffffffffffffffffffffffffff021916908373ffffffffffffffffffffffffffffffffffffffff1602179055509050507fdc691e972cb25fd6e968744b5a6416d42a052ac1305e3b7ed6777b621304b7f2600154823360405161024f93929190610e83565b60405180910390a150565b600080600083815260200190815260200160002090503373ffffffffffffffffffffffffffffffffffffffff168160020160019054906101000a900473ffffffffffffffffffffffffffffffffffffffff1673ffffffffffffffffffffffffffffffffffffffff1614610302576040517f08c379a00000000000000000000000000000000000000000000000000000000081526004016102f990610f0d565b60405180910390fd5b60008083815260200190815260200160002060008082016000905560018201600061032d919061071e565b6002820160006101000a81549060ff02191690556002820160016101000a81549073ffffffffffffffffffffffffffffffffffffffff021916905550507fd078b251d950cc55c44340be1db732337ef4939a76e1367ee271ad2cb19c46af826040516103999190610ab7565b60405180910390a15050565b60006020528060005260406000206000915090508060000154908060010180546103ce90610bd4565b80601f01602080910402602001604051908101604052809291908181526020018280546103fa90610bd4565b80156104475780601f1061041c57610100808354040283529160200191610447565b820191906000526020600020905b81548152906001019060200180831161042a57829003601f168201915b5050505050908060020160009054906101000a900460ff16908060020160019054906101000a900473ffffffffffffffffffffffffffffffffffffffff16905084565b60015481565b600080600084815260200190815260200160002090503373ffffffffffffffffffffffffffffffffffffffff168160020160019054906101000a900473ffffffffffffffffffffffffffffffffffffffff1673ffffffffffffffffffffffffffffffffffffffff1614610538576040517f08c379a000000000000000000000000000000000000000000000000000000000815260040161052f90610f0d565b60405180910390fd5b600082511161057c576040517f08c379a000000000000000000000000000000000000000000000000000000000815260040161057390610f79565b60405180910390fd5b8181600101908161058d9190610db1565b507f126a0ea5197c062eb92c789989294eb8d2aef31cf41fd012da26dfab98b29a1683836040516105bf929190610f99565b60405180910390a1505050565b600080600083815260200190815260200160002090503373ffffffffffffffffffffffffffffffffffffffff168160020160019054906101000a900473ffffffffffffffffffffffffffffffffffffffff1673ffffffffffffffffffffffffffffffffffffffff1614610674576040517f08c379a000000000000000000000000000000000000000000000000000000000815260040161066b90610f0d565b60405180910390fd5b8060020160009054906101000a900460ff16156106c6576040517f08c379a00000000000000000000000000000000000000000000000000000000081526004016106bd90611015565b60405180910390fd5b60018160020160006101000a81548160ff0219169083151502179055507fc1fa7142cfb933d0855114a3bffde296944c30b727f297c14d0db4d553d3a5c7826040516107129190610ab7565b60405180910390a15050565b50805461072a90610bd4565b6000825580601f1061073c575061075b565b601f01602090049060005260206000209081019061075a919061075e565b5b50565b5b8082111561077757600081600090555060010161075f565b5090565b6000604051905090565b600080fd5b600080fd5b600080fd5b600080fd5b6000601f19601f8301169050919050565b7f4e487b7100000000000000000000000000000000000000000000000000000000600052604160045260246000fd5b6107e282610799565b810181811067ffffffffffffffff82111715610801576108006107aa565b5b80604052505050565b600061081461077b565b905061082082826107d9565b919050565b600067ffffffffffffffff8211156108405761083f6107aa565b5b61084982610799565b9050602081019050919050565b82818337600083830152505050565b600061087861087384610825565b61080a565b90508281526020810184848401111561089457610893610794565b5b61089f848285610856565b509392505050565b600082601f8301126108bc576108bb61078f565b5b81356108cc848260208601610865565b91505092915050565b6000602082840312156108eb576108ea610785565b5b600082013567ffffffffffffffff8111156109095761090861078a565b5b610915848285016108a7565b91505092915050565b6000819050919050565b6109318161091e565b811461093c57600080fd5b50565b60008135905061094e81610928565b92915050565b60006020828403121561096a57610969610785565b5b60006109788482850161093f565b91505092915050565b61098a8161091e565b82525050565b600081519050919050565b600082825260208201905092915050565b60005b838110156109ca5780820151818401526020810190506109af565b60008484015250505050565b60006109e182610990565b6109eb818561099b565b93506109fb8185602086016109ac565b610a0481610799565b840191505092915050565b60008115159050919050565b610a2481610a0f565b82525050565b600073ffffffffffffffffffffffffffffffffffffffff82169050919050565b6000610a5582610a2a565b9050919050565b610a6581610a4a565b82525050565b6000608082019050610a806000830187610981565b8181036020830152610a9281866109d6565b9050610aa16040830185610a1b565b610aae6060830184610a5c565b95945050505050565b6000602082019050610acc6000830184610981565b92915050565b60008060408385031215610ae957610ae8610785565b5b6000610af78582860161093f565b925050602083013567ffffffffffffffff811115610b1857610b1761078a565b5b610b24858286016108a7565b9150509250929050565b7f4e487b7100000000000000000000000000000000000000000000000000000000600052601160045260246000fd5b6000610b688261091e565b91507fffffffffffffffffffffffffffffffffffffffffffffffffffffffffffffffff8203610b9a57610b99610b2e565b5b600182019050919050565b7f4e487b7100000000000000000000000000000000000000000000000000000000600052602260045260246000fd5b60006002820490506001821680610bec57607f821691505b602082108103610bff57610bfe610ba5565b5b50919050565b60008190508160005260206000209050919050565b60006020601f8301049050919050565b600082821b905092915050565b600060088302610c677fffffffffffffffffffffffffffffffffffffffffffffffffffffffffffffffff82610c2a565b610c718683610c2a565b95508019841693508086168417925050509392505050565b6000819050919050565b6000610cae610ca9610ca48461091e565b610c89565b61091e565b9050919050565b6000819050919050565b610cc883610c93565b610cdc610cd482610cb5565b848454610c37565b825550505050565b600090565b610cf1610ce4565b610cfc818484610cbf565b505050565b5b81811015610d2057610d15600082610ce9565b600181019050610d02565b5050565b601f821115610d6557610d3681610c05565b610d3f84610c1a565b81016020851015610d4e578190505b610d62610d5a85610c1a565b830182610d01565b50505b505050565b600082821c905092915050565b6000610d8860001984600802610d6a565b1980831691505092915050565b6000610da18383610d77565b9150826002028217905092915050565b610dba82610990565b67ffffffffffffffff811115610dd357610dd26107aa565b5b610ddd8254610bd4565b610de8828285610d24565b600060209050601f831160018114610e1b5760008415610e09578287015190505b610e138582610d95565b865550610e7b565b601f198416610e2986610c05565b60005b82811015610e5157848901518255600182019150602085019450602081019050610e2c565b86831015610e6e5784890151610e6a601f891682610d77565b8355505b6001600288020188555050505b505050505050565b6000606082019050610e986000830186610981565b8181036020830152610eaa81856109d6565b9050610eb96040830184610a5c565b949350505050565b7f4e6f74207461736b2063726561746f7200000000000000000000000000000000600082015250565b6000610ef760108361099b565b9150610f0282610ec1565b602082019050919050565b60006020820190508181036000830152610f2681610eea565b9050919050565b7f436f6e74656e7420726571756972656400000000000000000000000000000000600082015250565b6000610f6360108361099b565b9150610f6e82610f2d565b602082019050919050565b60006020820190508181036000830152610f9281610f56565b9050919050565b6000604082019050610fae6000830185610981565b8181036020830152610fc081846109d6565b90509392505050565b7f416c726561647920636f6d706c65746564000000000000000000000000000000600082015250565b6000610fff60118361099b565b915061100a82610fc9565b602082019050919050565b6000602082019050818103600083015261102e81610ff2565b905091905056fea264697066735822122035c37e8a2e8914b9efe86ec85608b878f24d916e6ddc85df7186b5b67acd9ed664736f6c63430008140033",
  "linkReferences": {},
  "deployedLinkReferences": {}
}